{
  "transactions": [
    {
      "hash": "0x9e87a7e9c1c0eb82a4c0748f6233c94da3f20cb6a21e67e95bfb37906b1bb065",
      "transactionType": "CALL",
      "contractName": null,
      "contractAddress": "0xd3ffd73c53f139cebb80b6a524be280955b3f4db",
      "function": "setBaseURI(string)",
      "arguments": [
        "https://raw.githubusercontent.com/Karatekid05/MonanimalWars/main/packages/nextjs/public/nft-metadata/"
      ],
      "transaction": {
        "from": "0xf39fd6e51aad88f6f4ce6ab8827279cfffb92266",
        "to": "0xd3ffd73c53f139cebb80b6a524be280955b3f4db",
        "gas": "0xcb96",
        "value": "0x0",
        "input": "0x55f804b30000000000000000000000000000000000000000000000000000000000000020000000000000000000000000000000000000000000000000000000000000006568747470733a2f2f7261772e67697468756275736572636f6e74656e742e636f6d2f4b61726174656b696430352f4d6f6e616e696d616c576172732f6d61696e2f7061636b616765732f6e6578746a732f7075626c69632f6e66742d6d657461646174612f000000000000000000000000000000000000000000000000000000",
        "nonce": "0x110",
        "chainId": "0x4eaf"
      },
      "additionalContracts": [],
      "isFixedGasLimit": false
    }
  ],
  "receipts": [
    {
      "status": "0x1",
      "cumulativeGasUsed": "0x9365",
      "logs": [],
      "logsBloom": "0x00000000000000000000000000000000000000000000000000000000000000000000000000000000000000000000000000000000000000000000000000000000000000000000000000000000000000000000000000000000000000000000000000000000000000000000000000000000000000000000000000000000000000000000000000000000000000000000000000000000000000000000000000000000000000000000000000000000000000000000000000000000000000000000000000000000000000000000000000000000000000000000000000000000000000000000000000000000000000000000000000000000000000000000000000000000",
      "type": "0x2",
      "transactionHash": "0x9e87a7e9c1c0eb82a4c0748f6233c94da3f20cb6a21e67e95bfb37906b1bb065",
      "transactionIndex": "0x0",
      "blockHash": "0x8481af72f0dd3648d3cf36880f4ec9c5db48583671bce5bf7928243958541cc7",
      "blockNumber": "0x173be7",
      "gasUsed": "0x9365",
      "effectiveGasPrice": "0xba43b7401",
      "from": "0xf39fd6e51aad88f6f4ce6ab8827279cfffb92266",
      "to": "0xd3ffd73c53f139cebb80b6a524be280955b3f4db",
      "contractAddress": null
    }
  ],
  "libraries": [],
  "pending": [],
  "returns": {},
  "timestamp": 1737908074,
  "chain": 20143,
  "commit": "2795d7d"
}