{
  "transactions": [
    {
      "hash": null,
      "transactionType": "CALL",
      "contractName": null,
      "contractAddress": "0xc1e0a9db9ea830c52603798481045688c8ae99c2",
      "function": "setMonavaraNFT(address)",
      "arguments": [
        "0xdF46e54aAadC1d55198A4a8b4674D7a4c927097A"
      ],
      "transaction": {
        "from": "0xf39fd6e51aad88f6f4ce6ab8827279cfffb92266",
        "to": "0xc1e0a9db9ea830c52603798481045688c8ae99c2",
        "gas": "0x9c77",
        "value": "0x0",
        "input": "0x359c424c000000000000000000000000df46e54aaadc1d55198a4a8b4674d7a4c927097a",
        "nonce": "0x120",
        "chainId": "0x4eaf"
      },
      "additionalContracts": [],
      "isFixedGasLimit": false
    }
  ],
  "receipts": [],
  "libraries": [],
  "pending": [],
  "returns": {},
  "timestamp": 1737916092,
  "chain": 20143,
  "commit": "59d0b01"
}